:100000000C9435010C9466010C9466010C94660105
:100010000C9466010C9466010C9466010C946601C4
:100020000C9466010C9466010C9466010C946601B4
:100030000C9466010C9466010C9466010C946601A4
:100040000C9466010C9466010C9466010C94660194
:100050000C9466010C9466010C9466010C94910456
:100060000C9466010C945B040C9431040C946601AE
:100070000C9466010C9466010C9466010C94660164
:100080000C9466010C9466010C9466010C94660154
:100090000C9466010C9466010C9466010C94660144
:1000A0000C9466010C9466010C9466010C94660134
:1000B0000C9466010C9466010C9466010C94660124
:1000C0000C9466010C9466010C9466010C94660114
:1000D0000C9466010C9466010C9466010C94660104
:1000E0000C9466010C94E3020C94C8020C94A401D5
:1000F0000C94C0020C944B020C94CC020C94FE01A4
:100100000C94C6010C9495010C94F5020C94FB021E
:100110000C94D5020C94C4020C94B8010C94CF0238
:100120000C94F1020C94BA020C9468010C94ED0248
:100130000C94D9020C94FA020C94DF020C9432064F
:100140000C94FF020C94E702000021002400270019
:100150002A002D00300033000101000004010701D6
:100160000A0100002200250028002B002E0031008B
:10017000340002010000050108010B01000020000D
:100180002300260029002C002F003200000100006F
:10019000030106010901050505050705080808080A
:1001A000020202020A0A080804040404010101010F
:1001B000010101010303030303030303040707070A
:1001C0000C0C0C0C0C0C0C0C0202020206060606AF
:1001D000060606060B0B0B0B0B0B0B0B010210207C
:1001E000200808102040102040800201020108046D
:1001F0000201010204081020408080402010080401
:100200000201800402018040201008040201080459
:10021000020101020408102040800102040810209D
:10022000408000000A0B02090C0D0E0807030401B0
:1002300000000000000000000000000000000000BE
:10024000000000000000000000000000000012118B
:10025000100000000000000000000000000000008E
:100260000000000000000000320611241FBECFEF86
:10027000D1E2DEBFCDBF00E00CBF12E0A0E0B2E0F3
:10028000E6E1FDE000E00BBF02C007900D92A63151
:10029000B107D9F722E0A6E1B2E001C01D92AE3B62
:1002A000B207E1F711E0C5E3D1E000E006C0219715
:1002B0000109802FFE010E948106C433D10780E02E
:1002C0000807A9F70E94DB040C9489060C9400002F
:1002D000AF92BF92CF92DF92EF92FF920F931F9354
:1002E000CF93DF936C017B018B01040F151FEB0192
:1002F0005E01AE18BF08C017D10759F06991D60149
:10030000ED91FC910190F081E02DC6011995892BAA
:1003100079F7C501DF91CF911F910F91FF90EF9079
:10032000DF90CF90BF90AF900895FC01538D448D26
:10033000252F30E0842F90E0821B930B541710F090
:10034000CF96089501970895FC01918D828D98179D
:1003500061F0A28DAE0FBF2FB11D5D968C91928D75
:100360009F5F9F73928F90E008958FEF9FEF0895A6
:10037000FC01918D828D981731F0828DE80FF11D6F
:10038000858D90E008958FEF9FEF0895FC01918D8A
:10039000228D892F90E0805C9F4F821B91098F7383
:1003A0009927089581E292E00E94C60121E0892BFD
:1003B00009F420E0822F0895FC01A48DA80FB92F25
:1003C000B11DA35ABF4F2C91848D90E001968F737D
:1003D0009927848FA689B7892C93A089B1898C919C
:1003E000837080648C93938D848D981306C00288EB
:1003F000F389E02D80818F7D80830895EF92FF92B5
:100400000F931F93CF93DF93EC0181E0888F9B8D37
:100410008C8D98131AC0E889F989808185FF15C0F1
:100420009FB7F894EE89FF896083E889F989808114
:100430008370806480839FBF81E090E0DF91CF91E3
:100440001F910F91FF90EF900895F62E0B8D10E005
:100450000F5F1F4F0F731127E02E8C8D8E110CC074
:100460000FB607FCFACFE889F989808185FFF5CFBF
:10047000CE010E94DC01F1CFEB8DEC0FFD2FF11DC1
:10048000E35AFF4FF0829FB7F8940B8FEA89FB89FC
:1004900080818062CFCFCF93DF93EC01888D88235A
:1004A000B9F0AA89BB89E889F9898C9185FD03C0D7
:1004B000808186FD0DC00FB607FCF7CF8C9185FFBC
:1004C000F2CF808185FFEDCFCE010E94DC01E9CF24
:1004D000DF91CF91089580E090E0892B29F00E9470
:1004E000D20181110E94000080E090E0892B49F048
:1004F00080E090E0892B29F00E94000081110E9489
:10050000000080E090E0892B49F080E090E0892BAA
:1005100029F00E94000081110E94000080E090E01C
:10052000892B49F080E090E0892B29F00E9400009F
:1005300081110C94000008958150823108F05AC056
:10054000E82FF0E08827E855FD4F8F4F0C94810687
:10055000C802CC02BA02C002C402FA02CF02D5021B
:10056000D902DF02E302E702ED02F102FA02F5022C
:10057000FB02FF02809180008F77809380000895B6
:10058000809180008F7DF9CF80918000877FF5CFAB
:1005900084B58F7784BD089584B58F7DFBCF80911E
:1005A000B0008F778093B00008958091B0008F7D68
:1005B000F9CF809190008F7780939000089580917B
:1005C00090008F7DF9CF80919000877FF5CF80914B
:1005D000A0008F778093A00008958091A0008F7D68
:1005E000F9CF8091A000877FF5CF809120018F7790
:1005F000809320010895809120018F7DF9CF809113
:100600002001877FF5CFCF93DF93282F30E0F901CA
:10061000EE5DFD4F8491F901E452FE4FD491F90152
:10062000EA56FE4FC491CC23A1F081110E949C0296
:10063000EC2FF0E0EE0FFF1FE458FE4FA591B491B0
:10064000EC91ED2381E090E009F480E0DF91CF911F
:10065000089580E090E0FACF1F93CF93DF93282F87
:1006600030E0F901EE5DFD4F8491F901E452FE4F57
:10067000D491F901EA56FE4FC491CC23A9F0162F6C
:1006800081110E949C02EC2FF0E0EE0FFF1FEE594B
:10069000FE4FA591B4918FB7F894EC91111108C059
:1006A000D095DE23DC938FBFDF91CF911F9108950A
:1006B000DE2BF8CFCF93DF9390E0FC01E452FE4FA6
:1006C00024918A569E4FFC0184918823D1F090E0BA
:1006D000880F991FFC01E85BFE4FA591B491FC01C6
:1006E000EE59FE4FC591D49161110EC09FB7F89499
:1006F0008C91E22FE0958E238C932881E223E8836E
:100700009FBFDF91CF9108958FB7F894EC91E22BC2
:10071000EC938FBFF6CF3FB7F89480911B02909176
:100720001C02A0911D02B0911E0226B5A89B05C017
:100730002F3F19F00196A11DB11D3FBFBA2FA92F60
:10074000982F8827BC01CD01620F711D811D911D5D
:1007500042E0660F771F881F991F4A95D1F70895C9
:100760008F929F92AF92BF92CF92DF92EF92FF92C1
:100770006B017C010E948B034B015C01C114D1040D
:10078000E104F104B9F00E948B03681979098A0920
:100790009B09683E73408105910580F321E0C21AF0
:1007A000D108E108F10888EE880E83E0981EA11CAC
:1007B000B11CE4CFFF90EF90DF90CF90BF90AF904F
:1007C0009F908F9008958F929F92AF92BF920F93B8
:1007D0001F93CF93DF93CDB7DEB7A1970FB6F894F1
:1007E000DEBF0FBECDBF19A2423008F44AE08E0131
:1007F0000F5D1F4F842E912CB12CA12CA5019401CB
:100800000E945F06E62FB901CA01EA3044F5E05DB7
:10081000D801EE938D01232B242B252B79F790E023
:1008200080E0109769F0FD0101900020E9F7319711
:10083000AF014A1B5B0BBD0181E292E00E9468019F
:10084000A1960FB6F894DEBF0FBECDBFDF91CF915A
:100850001F910F91BF90AF909F908F900895E95C8A
:10086000D7CF1F920F920FB60F9211240BB60F9293
:100870002F933F934F935F936F937F938F939F93A8
:10088000AF93BF93EF93FF9381E292E00E94DC016C
:10089000FF91EF91BF91AF919F918F917F916F9158
:1008A0005F914F913F912F910F900BBE0F900FBE14
:1008B0000F901F9018951F920F920FB60F92112450
:1008C0000BB60F922F938F939F93EF93FF93E0912B
:1008D0003102F09132028081E0913702F0913802CA
:1008E00082FD1DC0908180913A028F5F8F732091AD
:1008F0003B02821741F0E0913A02F0E0EF5DFD4FDC
:10090000958F80933A02FF91EF919F918F912F9154
:100910000F900BBE0F900FBE0F901F901895808107
:10092000F2CF1F920F920FB60F9211242F933F9385
:100930008F939F93AF93BF9380911702909118026A
:10094000A0911902B0911A023091160223E0230FF0
:100950002D3758F50196A11DB11D209316028093E5
:10096000170290931802A0931902B0931A02809173
:100970001B0290911C02A0911D02B0911E020196D3
:10098000A11DB11D80931B0290931C02A0931D0218
:10099000B0931E02BF91AF919F918F913F912F9184
:1009A0000F900FBE0F901F90189526E8230F029608
:1009B000A11DB11DD2CF789484B5826084BD84B569
:1009C000816084BD85B5826085BD85B5816085BD4A
:1009D00080916E00816080936E0010928100809102
:1009E000810082608093810080918100816080938A
:1009F0008100809180008160809380008091B100AF
:100A000084608093B1008091B00081608093B000D9
:100A1000809191008260809391008091910081602B
:100A200080939100809190008160809390008091EC
:100A3000A10082608093A1008091A10081608093D9
:100A4000A1008091A00081608093A000809121018D
:100A50008260809321018091210181608093210136
:100A60008091200181608093200180917A008460D0
:100A700080937A0080917A00826080937A008091DE
:100A80007A00816080937A0080917A0080688093F8
:100A90007A001092C10060E082E00E945A0360E098
:100AA00083E00E945A0361E086E00E945A0361E0FD
:100AB00087E00E945A0361E086E10E945A0361E0E8
:100AC00087E10E945A0361E088E10E945A0361E0D5
:100AD00088E00E945A0360E089E00E945A03E09196
:100AE0003102F091320282E08083E0912D02F09198
:100AF0002E021082E0912F02F09130028FEC808361
:100B000010923902E0913502F091360286E080833E
:100B1000E0913302F0913402808180618083E09122
:100B20003302F0913402808188608083E091330247
:100B3000F0913402808180688083E0913302F091EB
:100B4000340280818F7D808389E00E9403036C01E1
:100B50009093200280931F02682F88E00E942C034C
:100B60000D2C000CEE08FF084AE0C701B601F7FEA5
:100B70000DC06DE281E292E00E94FE0166277727B8
:100B8000CB016C197D098E099F094AE00E94E3039D
:100B900042E050E062E172E081E292E00E9468018E
:100BA00082E00E9403037C0183E00E94030301971B
:100BB000B9F460E086E00E942C0360E087E00E94C8
:100BC0002C0360E086E10E942C0360E087E10E9434
:100BD0002C0361E088E10E942C030E946B02B4CFD9
:100BE00081E0E816F10409F560E088E10E942C0339
:100BF00061E086E00E942C0361E086E10E942C0304
:100C00006AEF70E080E090E00E94B00360E087E06F
:100C10000E942C0360E087E10E942C0360E086E0E4
:100C20000E942C0360E087E0D6CF61E088E1EF28E6
:100C300099F760E088E10E942C0361E087E00E9460
:100C40002C0361E087E10E942C036AEF70E080E0F2
:100C500090E00E94B00360E086E00E942C0360E018
:100C600086E1DACFE1E2F2E01382128288EE93E0CD
:100C7000A0E0B0E084839583A683B78384E092E00C
:100C80009183808385EC90E09587848784EC90E065
:100C90009787868780EC90E0918B808B81EC90E049
:100CA000938B828B82EC90E0958B848B86EC90E02A
:100CB000978B868B118E128E138E148E0895A1E25F
:100CC0001A2EAA1BBB1BFD010DC0AA1FBB1FEE1FC6
:100CD000FF1FA217B307E407F50720F0A21BB30B11
:100CE000E40BF50B661F771F881F991F1A9469F78D
:100CF00060957095809590959B01AC01BD01CF01E9
:100D00000895EE0FFF1F881F8BBF0790F691E02D0F
:060D10001994F894FFCFD6
:100D160000000000FE01680195014B02C601A40116
:060D2600B8010D0A0000F7
:00000001FF
