:100000000C9435010C9466010C9466010C94660105
:100010000C9466010C9466010C9466010C946601C4
:100020000C9466010C9466010C9466010C946601B4
:100030000C9466010C9466010C9466010C946601A4
:100040000C9466010C9466010C9466010C94660194
:100050000C9466010C9466010C9466010C946D047A
:100060000C9466010C9437040C940D040C946601F6
:100070000C9466010C9466010C9466010C94660164
:100080000C9466010C9466010C9466010C94660154
:100090000C9466010C9466010C9466010C94660144
:1000A0000C9466010C9466010C9466010C94660134
:1000B0000C9466010C9466010C9466010C94660124
:1000C0000C9466010C9466010C9466010C94660114
:1000D0000C9466010C9466010C9466010C94660104
:1000E0000C9466010C94D5020C9495010C94FF02BB
:1000F0000C94E3020C94DF020C94D9020C94BA0223
:100100000C94FE010C94C0020C94C8020C94FB02E7
:100110000C944B020C9468010C94F5020C94F102BF
:100120000C94FA020C94CF020C94B8010C94ED02DA
:100130000C9410060C94A4010C94C6010C94E702D4
:100140000C94C4020C94CC0200002100240027006F
:100150002A002D00300033000101000004010701D6
:100160000A0100002200250028002B002E0031008B
:10017000340002010000050108010B01000020000D
:100180002300260029002C002F003200000100006F
:10019000030106010901050505050705080808080A
:1001A000020202020A0A080804040404010101010F
:1001B000010101010303030303030303040707070A
:1001C0000C0C0C0C0C0C0C0C0202020206060606AF
:1001D000060606060B0B0B0B0B0B0B0B010210207C
:1001E000200808102040102040800201020108046D
:1001F0000201010204081020408080402010080401
:100200000201800402018040201008040201080459
:10021000020101020408102040800102040810209D
:10022000408000000A0B02090C0D0E0807030401B0
:1002300000000000000000000000000000000000BE
:10024000000000000000000000000000000012118B
:10025000100000000000000000000000000000008E
:100260000000000000000000100611241FBECFEFA8
:10027000D1E2DEBFCDBF00E00CBF12E0A0E0B2E0F3
:10028000E2EDFCE000E00BBF02C007900D92A6314A
:10029000B107D9F722E0A6E1B2E001C01D92AC3B64
:1002A000B207E1F711E0C5E3D1E000E006C0219715
:1002B0000109802FFE010E945F06C433D10780E050
:1002C0000807A9F70E94B7040C9467060C94000075
:1002D000AF92BF92CF92DF92EF92FF920F931F9354
:1002E000CF93DF936C017B018B01040F151FEB0192
:1002F0005E01AE18BF08C017D10759F06991D60149
:10030000ED91FC910190F081E02DC6011995892BAA
:1003100079F7C501DF91CF911F910F91FF90EF9079
:10032000DF90CF90BF90AF900895FC01538D448D26
:10033000252F30E0842F90E0821B930B541710F090
:10034000CF96089501970895FC01918D828D98179D
:1003500061F0A28DAE0FBF2FB11D5D968C91928D75
:100360009F5F9F73928F90E008958FEF9FEF0895A6
:10037000FC01918D828D981731F0828DE80FF11D6F
:10038000858D90E008958FEF9FEF0895FC01918D8A
:10039000228D892F90E0805C9F4F821B91098F7383
:1003A000992708958FE192E00E94C60121E0892BF0
:1003B00009F420E0822F0895FC01A48DA80FB92F25
:1003C000B11DA35ABF4F2C91848D90E001968F737D
:1003D0009927848FA689B7892C93A089B1898C919C
:1003E000837080648C93938D848D981306C00288EB
:1003F000F389E02D80818F7D80830895EF92FF92B5
:100400000F931F93CF93DF93EC0181E0888F9B8D37
:100410008C8D98131AC0E889F989808185FF15C0F1
:100420009FB7F894EE89FF896083E889F989808114
:100430008370806480839FBF81E090E0DF91CF91E3
:100440001F910F91FF90EF900895F62E0B8D10E005
:100450000F5F1F4F0F731127E02E8C8D8E110CC074
:100460000FB607FCFACFE889F989808185FFF5CFBF
:10047000CE010E94DC01F1CFEB8DEC0FFD2FF11DC1
:10048000E35AFF4FF0829FB7F8940B8FEA89FB89FC
:1004900080818062CFCFCF93DF93EC01888D88235A
:1004A000B9F0AA89BB89E889F9898C9185FD03C0D7
:1004B000808186FD0DC00FB607FCF7CF8C9185FFBC
:1004C000F2CF808185FFEDCFCE010E94DC01E9CF24
:1004D000DF91CF91089580E090E0892B29F00E9470
:1004E000D20181110E94000080E090E0892B49F048
:1004F00080E090E0892B29F00E94000081110E9489
:10050000000080E090E0892B49F080E090E0892BAA
:1005100029F00E94000081110E94000080E090E01C
:10052000892B49F080E090E0892B29F00E9400009F
:1005300081110C94000008958150823108F05AC056
:10054000E82FF0E08827E855FD4F8F4F0C945F06A9
:10055000C802CC02BA02C002C402FA02CF02D5021B
:10056000D902DF02E302E702ED02F102FA02F5022C
:10057000FB02FF02809180008F77809380000895B6
:10058000809180008F7DF9CF80918000877FF5CFAB
:1005900084B58F7784BD089584B58F7DFBCF80911E
:1005A000B0008F778093B00008958091B0008F7D68
:1005B000F9CF809190008F7780939000089580917B
:1005C00090008F7DF9CF80919000877FF5CF80914B
:1005D000A0008F778093A00008958091A0008F7D68
:1005E000F9CF8091A000877FF5CF809120018F7790
:1005F000809320010895809120018F7DF9CF809113
:100600002001877FF5CF1F93CF93DF93282F30E012
:10061000F901EE5DFD4F8491F901E452FE4FD49152
:10062000F901EA56FE4FC491CC23A9F0162F81118F
:100630000E949C02EC2FF0E0EE0FFF1FEE59FE4FE0
:10064000A591B4918FB7F894EC91111108C0D09591
:10065000DE23DC938FBFDF91CF911F910895DE2BB6
:10066000F8CFCF93DF9390E0FC01E452FE4F24914A
:100670008A569E4FFC0184918823D1F090E0880F28
:10068000991FFC01E85BFE4FA591B491FC01EE5966
:10069000FE4FC591D49161110EC09FB7F8948C9113
:1006A000E22FE0958E238C932881E223E8839FBF7D
:1006B000DF91CF9108958FB7F894EC91E22BEC93F2
:1006C0008FBFF6CF3FB7F89480911B0290911C0228
:1006D000A0911D02B0911E0226B5A89B05C02F3F18
:1006E00019F00196A11DB11D3FBFBA2FA92F982F58
:1006F0008827BC01CD01620F711D811D911D42E053
:10070000660F771F881F991F4A95D1F708958F921A
:100710009F92AF92BF920F931F93CF93DF93CDB76A
:10072000DEB7A1970FB6F894DEBF0FBECDBF19A2FA
:10073000423008F44AE08E010F5D1F4F842E912C49
:10074000B12CA12CA50194010E943D06E62FB90110
:10075000CA01EA3044F5E05DD801EE938D01232B08
:10076000242B252B79F790E080E0109769F0FD01AC
:1007700001900020E9F73197AF014A1B5B0BBD01E7
:100780008FE192E00E946801A1960FB6F894DEBF57
:100790000FBECDBFDF91CF911F910F91BF90AF9052
:1007A0009F908F900895E95CD7CF42E050E062E1DE
:1007B00072E08FE192E00C946801CF92DF92EF92A9
:1007C000FF92CF93DF936C01990FEE08FF08F7FEBD
:1007D0001DC06DE28FE192E00E94FE01EC016627F0
:1007E0007727CB016C197D098E099F094AE00E9489
:1007F0008703C80FD91F0E94D5038C0F9D1FDF915F
:10080000CF91FF90EF90DF90CF9008954AE0C7011D
:10081000B6010E948703EC01EECF1F920F920FB634
:100820000F9211240BB60F922F933F934F935F9328
:100830006F937F938F939F93AF93BF93EF93FF93A8
:100840008FE192E00E94DC01FF91EF91BF91AF91A7
:100850009F918F917F916F915F914F913F912F91D8
:100860000F900BBE0F900FBE0F901F9018951F9208
:100870000F920FB60F9211240BB60F922F938F93F6
:100880009F93EF93FF93E0912F02F09130028081CC
:10089000E0913502F091360282FD1DC09081809179
:1008A00038028F5F8F7320913902821741F0E091F7
:1008B0003802F0E0E15EFD4F958F80933802FF91A2
:1008C000EF919F918F912F910F900BBE0F900FBEC4
:1008D0000F901F9018958081F2CF1F920F920FB644
:1008E0000F9211242F933F938F939F93AF93BF93B6
:1008F0008091170290911802A0911902B0911A02EA
:100900003091160223E0230F2D3758F50196A11DD3
:10091000B11D209316028093170290931802A093A2
:100920001902B0931A0280911B0290911C02A091AF
:100930001D02B0911E020196A11DB11D80931B02E4
:1009400090931C02A0931D02B0931E02BF91AF9121
:100950009F918F913F912F910F900FBE0F901F90FD
:10096000189526E8230F0296A11DB11DD2CF7894C9
:1009700084B5826084BD84B5816084BD85B58260A4
:1009800085BD85B5816085BD80916E008160809355
:100990006E001092810080918100826080938100BE
:1009A00080918100816080938100809180008160CE
:1009B000809380008091B10084608093B100809129
:1009C000B00081608093B00080919100826080933C
:1009D00091008091910081608093910080919000BE
:1009E0008160809390008091A10082608093A1003B
:1009F0008091A10081608093A1008091A00081601E
:100A00008093A000809121018260809321018091D8
:100A10002101816080932101809120018160809378
:100A2000200180917A00846080937A0080917A001E
:100A3000826080937A0080917A00816080937A004E
:100A400080917A00806880937A001092C100E091D2
:100A50002F02F091300282E08083E0912B02F0912E
:100A60002C021082E0912D02F0912E028FEC8083F7
:100A700010923702E0913302F091340286E08083D5
:100A8000E0913102F0913202808180618083E091B7
:100A90003102F0913202808188608083E0913102DE
:100AA000F0913202808180688083E0913102F09180
:100AB000320280818F7D808360E082E00E9431037A
:100AC00061E083E00E94310361E084E00E94310331
:100AD00061E085E00E94310361E086E00E9431031D
:100AE00061E087E00E94310361E088E00E94310309
:100AF000C4E2D2E00EED11E028E9E22E21E0F22E70
:100B0000FE018491F801C490F701D490DD2009F42E
:100B10003BC081110E949C02ED2DF0E0EE0FFF1F03
:100B2000E458FE4FA591B4918C91C82291E080E0E9
:100B300009F490E0C92ED82EC6010E94DD03CD280D
:100B400031F560E083E00E94030361E084E00E94ED
:100B5000030361E087E00E94310361E087E00E94C7
:100B6000030360E085E00E94030361E086E00E94E9
:100B7000030361E088E00E94310361E088E00E94A5
:100B800003030E946B02BCCFD12CC12CD5CF0E9495
:100B900062032B013C0184E6882E912CA12CB12C00
:100BA0000E9462036419750986099709683E7340BB
:100BB00081059105A8F3F1E08F1A9108A108B10809
:100BC00028EE420E23E0521E611C711C8114910418
:100BD000A104B10429F761E083E00E94030360E00F
:100BE00084E00E94030361E087E00E94310361E03A
:100BF00087E00E94030361E085E00E94030360E058
:100C000086E00E94030361E088E00E94310361E016
:100C100088E00E94030381E090E00E94DD03B1CFF1
:100C2000EFE1F2E01382128288EE93E0A0E0B0E000
:100C300084839583A683B78384E092E09183808345
:100C400085EC90E09587848784EC90E09787868791
:100C500080EC90E0918B808B81EC90E0938B828B89
:100C600082EC90E0958B848B86EC90E0978B868B62
:100C7000118E128E138E148E0895A1E21A2EAA1BC5
:100C8000BB1BFD010DC0AA1FBB1FEE1FFF1FA2173C
:100C9000B307E407F50720F0A21BB30BE40BF50B39
:100CA000661F771F881F991F1A9469F760957095C2
:100CB000809590959B01AC01BD01CF010895EE0F89
:100CC000FF1F881F8BBF0790F691E02D1994F894B1
:020CD000FFCF54
:100CD20000000000FE01680195014B02C601A4015B
:060CE200B8010D0A00003C
:00000001FF
